:100000000C9434000C943E000C943E000C943E0082
:100010000C943E000C943E000C943E000C943E0068
:100020000C943E000C943E000C943E000C943E0058
:100030000C943E000C943E000C943E000C943E0048
:100040000C943E000C943E000C943E000C943E0038
:100050000C943E000C943E000C943E000C943E0028
:100060000C943E000C943E0011241FBECFEFD8E04C
:10007000DEBFCDBF0E9440000C9482000C940000B3
:1000800014B88FEF8AB971E068E0E9E023B183B179
:10009000827090E033B133B133B133B1422F41704C
:1000A00050E020FF0CC08230910509F5EBB983ECDC
:1000B00099E00197F1F700C000001BB8E7CF452B8E
:1000C00029F7009749F41BB883EC99E00197F1F701
:1000D00000C000001BB8DACF0297C1F67BB983ECF1
:1000E00099E00197F1F700C000001BB8CFCF892B32
:1000F00069F66BB983EC99E00197F1F700C0000055
:080100001BB8C4CFF894FFCF37
:00000001FF
